{
  "_format": "hh-sol-artifact-1",
  "contractName": "HanyaNFT",
  "sourceName": "contracts/HanyaNFT.sol",
  "abi": [
    {
      "inputs": [],
      "stateMutability": "payable",
      "type": "constructor"
    },
    {
      "anonymous": false,
      "inputs": [
        {
          "indexed": true,
          "internalType": "address",
          "name": "owner",
          "type": "address"
        },
        {
          "indexed": true,
          "internalType": "address",
          "name": "approved",
          "type": "address"
        },
        {
          "indexed": true,
          "internalType": "uint256",
          "name": "tokenId",
          "type": "uint256"
        }
      ],
      "name": "Approval",
      "type": "event"
    },
    {
      "anonymous": false,
      "inputs": [
        {
          "indexed": true,
          "internalType": "address",
          "name": "owner",
          "type": "address"
        },
        {
          "indexed": true,
          "internalType": "address",
          "name": "operator",
          "type": "address"
        },
        {
          "indexed": false,
          "internalType": "bool",
          "name": "approved",
          "type": "bool"
        }
      ],
      "name": "ApprovalForAll",
      "type": "event"
    },
    {
      "anonymous": false,
      "inputs": [
        {
          "indexed": true,
          "internalType": "address",
          "name": "previousOwner",
          "type": "address"
        },
        {
          "indexed": true,
          "internalType": "address",
          "name": "newOwner",
          "type": "address"
        }
      ],
      "name": "OwnershipTransferred",
      "type": "event"
    },
    {
      "anonymous": false,
      "inputs": [
        {
          "indexed": true,
          "internalType": "address",
          "name": "from",
          "type": "address"
        },
        {
          "indexed": true,
          "internalType": "address",
          "name": "to",
          "type": "address"
        },
        {
          "indexed": true,
          "internalType": "uint256",
          "name": "tokenId",
          "type": "uint256"
        }
      ],
      "name": "Transfer",
      "type": "event"
    },
    {
      "inputs": [
        {
          "internalType": "address",
          "name": "to",
          "type": "address"
        },
        {
          "internalType": "uint256",
          "name": "tokenId",
          "type": "uint256"
        }
      ],
      "name": "approve",
      "outputs": [],
      "stateMutability": "nonpayable",
      "type": "function"
    },
    {
      "inputs": [
        {
          "internalType": "address",
          "name": "owner",
          "type": "address"
        }
      ],
      "name": "balanceOf",
      "outputs": [
        {
          "internalType": "uint256",
          "name": "",
          "type": "uint256"
        }
      ],
      "stateMutability": "view",
      "type": "function"
    },
    {
      "inputs": [
        {
          "internalType": "uint256",
          "name": "tokenId",
          "type": "uint256"
        }
      ],
      "name": "getApproved",
      "outputs": [
        {
          "internalType": "address",
          "name": "",
          "type": "address"
        }
      ],
      "stateMutability": "view",
      "type": "function"
    },
    {
      "inputs": [
        {
          "internalType": "address",
          "name": "owner",
          "type": "address"
        },
        {
          "internalType": "address",
          "name": "operator",
          "type": "address"
        }
      ],
      "name": "isApprovedForAll",
      "outputs": [
        {
          "internalType": "bool",
          "name": "",
          "type": "bool"
        }
      ],
      "stateMutability": "view",
      "type": "function"
    },
    {
      "inputs": [],
      "name": "isPublicMintEnabled",
      "outputs": [
        {
          "internalType": "bool",
          "name": "",
          "type": "bool"
        }
      ],
      "stateMutability": "view",
      "type": "function"
    },
    {
      "inputs": [],
      "name": "maxPerWallet",
      "outputs": [
        {
          "internalType": "uint256",
          "name": "",
          "type": "uint256"
        }
      ],
      "stateMutability": "view",
      "type": "function"
    },
    {
      "inputs": [],
      "name": "maxSupply",
      "outputs": [
        {
          "internalType": "uint256",
          "name": "",
          "type": "uint256"
        }
      ],
      "stateMutability": "view",
      "type": "function"
    },
    {
      "inputs": [
        {
          "internalType": "uint256",
          "name": "_quantity",
          "type": "uint256"
        }
      ],
      "name": "mint",
      "outputs": [],
      "stateMutability": "payable",
      "type": "function"
    },
    {
      "inputs": [],
      "name": "mintPrice",
      "outputs": [
        {
          "internalType": "uint256",
          "name": "",
          "type": "uint256"
        }
      ],
      "stateMutability": "view",
      "type": "function"
    },
    {
      "inputs": [],
      "name": "name",
      "outputs": [
        {
          "internalType": "string",
          "name": "",
          "type": "string"
        }
      ],
      "stateMutability": "view",
      "type": "function"
    },
    {
      "inputs": [],
      "name": "owner",
      "outputs": [
        {
          "internalType": "address",
          "name": "",
          "type": "address"
        }
      ],
      "stateMutability": "view",
      "type": "function"
    },
    {
      "inputs": [
        {
          "internalType": "uint256",
          "name": "tokenId",
          "type": "uint256"
        }
      ],
      "name": "ownerOf",
      "outputs": [
        {
          "internalType": "address",
          "name": "",
          "type": "address"
        }
      ],
      "stateMutability": "view",
      "type": "function"
    },
    {
      "inputs": [],
      "name": "renounceOwnership",
      "outputs": [],
      "stateMutability": "nonpayable",
      "type": "function"
    },
    {
      "inputs": [
        {
          "internalType": "address",
          "name": "from",
          "type": "address"
        },
        {
          "internalType": "address",
          "name": "to",
          "type": "address"
        },
        {
          "internalType": "uint256",
          "name": "tokenId",
          "type": "uint256"
        }
      ],
      "name": "safeTransferFrom",
      "outputs": [],
      "stateMutability": "nonpayable",
      "type": "function"
    },
    {
      "inputs": [
        {
          "internalType": "address",
          "name": "from",
          "type": "address"
        },
        {
          "internalType": "address",
          "name": "to",
          "type": "address"
        },
        {
          "internalType": "uint256",
          "name": "tokenId",
          "type": "uint256"
        },
        {
          "internalType": "bytes",
          "name": "data",
          "type": "bytes"
        }
      ],
      "name": "safeTransferFrom",
      "outputs": [],
      "stateMutability": "nonpayable",
      "type": "function"
    },
    {
      "inputs": [
        {
          "internalType": "address",
          "name": "operator",
          "type": "address"
        },
        {
          "internalType": "bool",
          "name": "approved",
          "type": "bool"
        }
      ],
      "name": "setApprovalForAll",
      "outputs": [],
      "stateMutability": "nonpayable",
      "type": "function"
    },
    {
      "inputs": [
        {
          "internalType": "string",
          "name": "_baseTokenUri",
          "type": "string"
        }
      ],
      "name": "setBaseTokenUri",
      "outputs": [],
      "stateMutability": "nonpayable",
      "type": "function"
    },
    {
      "inputs": [
        {
          "internalType": "bool",
          "name": "_isPublicMintEnabled",
          "type": "bool"
        }
      ],
      "name": "setIsPublicMintEnabled",
      "outputs": [],
      "stateMutability": "nonpayable",
      "type": "function"
    },
    {
      "inputs": [
        {
          "internalType": "uint256",
          "name": "_maxPerWallet",
          "type": "uint256"
        }
      ],
      "name": "setMaxPerWallet",
      "outputs": [],
      "stateMutability": "nonpayable",
      "type": "function"
    },
    {
      "inputs": [
        {
          "internalType": "uint256",
          "name": "_maxSupply",
          "type": "uint256"
        }
      ],
      "name": "setMaxSupply",
      "outputs": [],
      "stateMutability": "nonpayable",
      "type": "function"
    },
    {
      "inputs": [
        {
          "internalType": "uint256",
          "name": "_mintPrice",
          "type": "uint256"
        }
      ],
      "name": "setMintPrice",
      "outputs": [],
      "stateMutability": "nonpayable",
      "type": "function"
    },
    {
      "inputs": [
        {
          "internalType": "address payable",
          "name": "_withdrawWallet",
          "type": "address"
        }
      ],
      "name": "setWithdrawWallet",
      "outputs": [],
      "stateMutability": "nonpayable",
      "type": "function"
    },
    {
      "inputs": [
        {
          "internalType": "bytes4",
          "name": "interfaceId",
          "type": "bytes4"
        }
      ],
      "name": "supportsInterface",
      "outputs": [
        {
          "internalType": "bool",
          "name": "",
          "type": "bool"
        }
      ],
      "stateMutability": "view",
      "type": "function"
    },
    {
      "inputs": [],
      "name": "symbol",
      "outputs": [
        {
          "internalType": "string",
          "name": "",
          "type": "string"
        }
      ],
      "stateMutability": "view",
      "type": "function"
    },
    {
      "inputs": [
        {
          "internalType": "uint256",
          "name": "_tokenId",
          "type": "uint256"
        }
      ],
      "name": "tokenURI",
      "outputs": [
        {
          "internalType": "string",
          "name": "",
          "type": "string"
        }
      ],
      "stateMutability": "view",
      "type": "function"
    },
    {
      "inputs": [],
      "name": "totalSupply",
      "outputs": [
        {
          "internalType": "uint256",
          "name": "",
          "type": "uint256"
        }
      ],
      "stateMutability": "view",
      "type": "function"
    },
    {
      "inputs": [
        {
          "internalType": "address",
          "name": "from",
          "type": "address"
        },
        {
          "internalType": "address",
          "name": "to",
          "type": "address"
        },
        {
          "internalType": "uint256",
          "name": "tokenId",
          "type": "uint256"
        }
      ],
      "name": "transferFrom",
      "outputs": [],
      "stateMutability": "nonpayable",
      "type": "function"
    },
    {
      "inputs": [
        {
          "internalType": "address",
          "name": "newOwner",
          "type": "address"
        }
      ],
      "name": "transferOwnership",
      "outputs": [],
      "stateMutability": "nonpayable",
      "type": "function"
    },
    {
      "inputs": [
        {
          "internalType": "address",
          "name": "",
          "type": "address"
        }
      ],
      "name": "walletMints",
      "outputs": [
        {
          "internalType": "uint256",
          "name": "",
          "type": "uint256"
        }
      ],
      "stateMutability": "view",
      "type": "function"
    },
    {
      "inputs": [],
      "name": "withdraw",
      "outputs": [],
      "stateMutability": "nonpayable",
      "type": "function"
    },
    {
      "inputs": [],
      "name": "withdrawWallet",
      "outputs": [
        {
          "internalType": "address payable",
          "name": "",
          "type": "address"
        }
      ],
      "stateMutability": "view",
      "type": "function"
    }
  ],
  "bytecode": "0x608060405260086009556001600a556040518060400160405280600881526020017f48616e79614e46540000000000000000000000000000000000000000000000008152506040518060400160405280600581526020017f48414e5941000000000000000000000000000000000000000000000000000000815250816000908051906020019062000092929190620001a2565b508060019080519060200190620000ab929190620001a2565b505050620000ce620000c2620000d460201b60201c565b620000dc60201b60201c565b620002b7565b600033905090565b6000600660009054906101000a900473ffffffffffffffffffffffffffffffffffffffff16905081600660006101000a81548173ffffffffffffffffffffffffffffffffffffffff021916908373ffffffffffffffffffffffffffffffffffffffff1602179055508173ffffffffffffffffffffffffffffffffffffffff168173ffffffffffffffffffffffffffffffffffffffff167f8be0079c531659141344cd1fd0a4f28419497f9722a3daafe3b4186f6b6457e060405160405180910390a35050565b828054620001b09062000281565b90600052602060002090601f016020900481019282620001d4576000855562000220565b82601f10620001ef57805160ff191683800117855562000220565b8280016001018555821562000220579182015b828111156200021f57825182559160200191906001019062000202565b5b5090506200022f919062000233565b5090565b5b808211156200024e57600081600090555060010162000234565b5090565b7f4e487b7100000000000000000000000000000000000000000000000000000000600052602260045260246000fd5b600060028204905060018216806200029a57607f821691505b60208210811415620002b157620002b062000252565b5b50919050565b6138a880620002c76000396000f3fe6080604052600436106101d85760003560e01c8063715018a611610102578063b88d4fde11610095578063e985e9c511610064578063e985e9c514610675578063f0293fd3146106b2578063f2fde38b146106ef578063f4a0a52814610718576101d8565b8063b88d4fde146105bb578063c87b56dd146105e4578063d5abeb0114610621578063e268e4d31461064c576101d8565b806395652cfa116100d157806395652cfa1461052257806395d89b411461054b578063a0712d6814610576578063a22cb46514610592576101d8565b8063715018a61461048c57806385d178f4146104a35780638da5cb5b146104ce5780639373f432146104f9576101d8565b806323b872dd1161017a5780636352211e116101495780636352211e146103be5780636817c76c146103fb5780636f8b44b01461042657806370a082311461044f576101d8565b806323b872dd1461032a5780633ccfd60b1461035357806342842e0e1461036a578063453c231014610393576101d8565b8063081812fc116101b6578063081812fc14610270578063095ea7b3146102ad57806318160ddd146102d65780632373ac2214610301576101d8565b80630116bc2d146101dd57806301ffc9a71461020857806306fdde0314610245575b600080fd5b3480156101e957600080fd5b506101f2610741565b6040516101ff91906123c7565b60405180910390f35b34801561021457600080fd5b5061022f600480360381019061022a919061244e565b610754565b60405161023c91906123c7565b60405180910390f35b34801561025157600080fd5b5061025a610836565b6040516102679190612514565b60405180910390f35b34801561027c57600080fd5b506102976004803603810190610292919061256c565b6108c8565b6040516102a491906125da565b60405180910390f35b3480156102b957600080fd5b506102d460048036038101906102cf9190612621565b61090e565b005b3480156102e257600080fd5b506102eb610a26565b6040516102f89190612670565b60405180910390f35b34801561030d57600080fd5b50610328600480360381019061032391906126b7565b610a2c565b005b34801561033657600080fd5b50610351600480360381019061034c91906126e4565b610a51565b005b34801561035f57600080fd5b50610368610ab1565b005b34801561037657600080fd5b50610391600480360381019061038c91906126e4565b610b8a565b005b34801561039f57600080fd5b506103a8610baa565b6040516103b59190612670565b60405180910390f35b3480156103ca57600080fd5b506103e560048036038101906103e0919061256c565b610bb0565b6040516103f291906125da565b60405180910390f35b34801561040757600080fd5b50610410610c37565b60405161041d9190612670565b60405180910390f35b34801561043257600080fd5b5061044d6004803603810190610448919061256c565b610c3d565b005b34801561045b57600080fd5b5061047660048036038101906104719190612737565b610c4f565b6040516104839190612670565b60405180910390f35b34801561049857600080fd5b506104a1610d07565b005b3480156104af57600080fd5b506104b8610d1b565b6040516104c59190612785565b60405180910390f35b3480156104da57600080fd5b506104e3610d41565b6040516104f091906125da565b60405180910390f35b34801561050557600080fd5b50610520600480360381019061051b91906127cc565b610d6b565b005b34801561052e57600080fd5b506105496004803603810190610544919061285e565b610db7565b005b34801561055757600080fd5b50610560610dd5565b60405161056d9190612514565b60405180910390f35b610590600480360381019061058b919061256c565b610e67565b005b34801561059e57600080fd5b506105b960048036038101906105b491906128ab565b6110cb565b005b3480156105c757600080fd5b506105e260048036038101906105dd9190612a1b565b6110e1565b005b3480156105f057600080fd5b5061060b6004803603810190610606919061256c565b611143565b6040516106189190612514565b60405180910390f35b34801561062d57600080fd5b50610636611177565b6040516106439190612670565b60405180910390f35b34801561065857600080fd5b50610673600480360381019061066e919061256c565b61117d565b005b34801561068157600080fd5b5061069c60048036038101906106979190612a9e565b61118f565b6040516106a991906123c7565b60405180910390f35b3480156106be57600080fd5b506106d960048036038101906106d49190612737565b611223565b6040516106e69190612670565b60405180910390f35b3480156106fb57600080fd5b5061071660048036038101906107119190612737565b61123b565b005b34801561072457600080fd5b5061073f600480360381019061073a919061256c565b6112bf565b005b600b60009054906101000a900460ff1681565b60007f80ac58cd000000000000000000000000000000000000000000000000000000007bffffffffffffffffffffffffffffffffffffffffffffffffffffffff1916827bffffffffffffffffffffffffffffffffffffffffffffffffffffffff1916148061081f57507f5b5e139f000000000000000000000000000000000000000000000000000000007bffffffffffffffffffffffffffffffffffffffffffffffffffffffff1916827bffffffffffffffffffffffffffffffffffffffffffffffffffffffff1916145b8061082f575061082e826112d1565b5b9050919050565b60606000805461084590612b0d565b80601f016020809104026020016040519081016040528092919081815260200182805461087190612b0d565b80156108be5780601f10610893576101008083540402835291602001916108be565b820191906000526020600020905b8154815290600101906020018083116108a157829003601f168201915b5050505050905090565b60006108d38261133b565b6004600083815260200190815260200160002060009054906101000a900473ffffffffffffffffffffffffffffffffffffffff169050919050565b600061091982610bb0565b90508073ffffffffffffffffffffffffffffffffffffffff168373ffffffffffffffffffffffffffffffffffffffff16141561098a576040517f08c379a000000000000000000000000000000000000000000000000000000000815260040161098190612bb1565b60405180910390fd5b8073ffffffffffffffffffffffffffffffffffffffff166109a9611386565b73ffffffffffffffffffffffffffffffffffffffff1614806109d857506109d7816109d2611386565b61118f565b5b610a17576040517f08c379a0000000000000000000000000000000000000000000000000000000008152600401610a0e90612c43565b60405180910390fd5b610a21838361138e565b505050565b60085481565b610a34611447565b80600b60006101000a81548160ff02191690831515021790555050565b610a62610a5c611386565b826114c5565b610aa1576040517f08c379a0000000000000000000000000000000000000000000000000000000008152600401610a9890612cd5565b60405180910390fd5b610aac83838361155a565b505050565b610ab9611447565b6000600d60009054906101000a900473ffffffffffffffffffffffffffffffffffffffff1673ffffffffffffffffffffffffffffffffffffffff1647604051610b0190612d26565b60006040518083038185875af1925050503d8060008114610b3e576040519150601f19603f3d011682016040523d82523d6000602084013e610b43565b606091505b5050905080610b87576040517f08c379a0000000000000000000000000000000000000000000000000000000008152600401610b7e90612d87565b60405180910390fd5b50565b610ba5838383604051806020016040528060008152506110e1565b505050565b600a5481565b600080610bbc83611854565b9050600073ffffffffffffffffffffffffffffffffffffffff168173ffffffffffffffffffffffffffffffffffffffff161415610c2e576040517f08c379a0000000000000000000000000000000000000000000000000000000008152600401610c2590612df3565b60405180910390fd5b80915050919050565b60075481565b610c45611447565b8060098190555050565b60008073ffffffffffffffffffffffffffffffffffffffff168273ffffffffffffffffffffffffffffffffffffffff161415610cc0576040517f08c379a0000000000000000000000000000000000000000000000000000000008152600401610cb790612e85565b60405180910390fd5b600360008373ffffffffffffffffffffffffffffffffffffffff1673ffffffffffffffffffffffffffffffffffffffff168152602001908152602001600020549050919050565b610d0f611447565b610d196000611891565b565b600d60009054906101000a900473ffffffffffffffffffffffffffffffffffffffff1681565b6000600660009054906101000a900473ffffffffffffffffffffffffffffffffffffffff16905090565b610d73611447565b80600d60006101000a81548173ffffffffffffffffffffffffffffffffffffffff021916908373ffffffffffffffffffffffffffffffffffffffff16021790555050565b610dbf611447565b8181600c9190610dd0929190612309565b505050565b606060018054610de490612b0d565b80601f0160208091040260200160405190810160405280929190818152602001828054610e1090612b0d565b8015610e5d5780601f10610e3257610100808354040283529160200191610e5d565b820191906000526020600020905b815481529060010190602001808311610e4057829003601f168201915b5050505050905090565b600b60009054906101000a900460ff16610eb6576040517f08c379a0000000000000000000000000000000000000000000000000000000008152600401610ead90612ef1565b60405180910390fd5b60075481610ec49190612f40565b3414610f05576040517f08c379a0000000000000000000000000000000000000000000000000000000008152600401610efc90612fe6565b60405180910390fd5b60095481600854610f169190613006565b1115610f57576040517f08c379a0000000000000000000000000000000000000000000000000000000008152600401610f4e906130a8565b60405180910390fd5b6001600e60003373ffffffffffffffffffffffffffffffffffffffff1673ffffffffffffffffffffffffffffffffffffffff1681526020019081526020016000205410610fd9576040517f08c379a0000000000000000000000000000000000000000000000000000000008152600401610fd090613114565b60405180910390fd5b600a5481111561101e576040517f08c379a000000000000000000000000000000000000000000000000000000000815260040161101590613180565b60405180910390fd5b60005b818110156110c7576000600160085461103a9190613006565b90506008600081548092919061104f906131a0565b9190505550600e60003373ffffffffffffffffffffffffffffffffffffffff1673ffffffffffffffffffffffffffffffffffffffff16815260200190815260200160002060008154809291906110a4906131a0565b91905055506110b33382611957565b5080806110bf906131a0565b915050611021565b5050565b6110dd6110d6611386565b8383611975565b5050565b6110f26110ec611386565b836114c5565b611131576040517f08c379a000000000000000000000000000000000000000000000000000000000815260040161112890612cd5565b60405180910390fd5b61113d84848484611ae2565b50505050565b6060600c61115083611b3e565b604051602001611161929190613305565b6040516020818303038152906040529050919050565b60095481565b611185611447565b80600a8190555050565b6000600560008473ffffffffffffffffffffffffffffffffffffffff1673ffffffffffffffffffffffffffffffffffffffff16815260200190815260200160002060008373ffffffffffffffffffffffffffffffffffffffff1673ffffffffffffffffffffffffffffffffffffffff16815260200190815260200160002060009054906101000a900460ff16905092915050565b600e6020528060005260406000206000915090505481565b611243611447565b600073ffffffffffffffffffffffffffffffffffffffff168173ffffffffffffffffffffffffffffffffffffffff1614156112b3576040517f08c379a00000000000000000000000000000000000000000000000000000000081526004016112aa906133a6565b60405180910390fd5b6112bc81611891565b50565b6112c7611447565b8060078190555050565b60007f01ffc9a7000000000000000000000000000000000000000000000000000000007bffffffffffffffffffffffffffffffffffffffffffffffffffffffff1916827bffffffffffffffffffffffffffffffffffffffffffffffffffffffff1916149050919050565b61134481611c16565b611383576040517f08c379a000000000000000000000000000000000000000000000000000000000815260040161137a90612df3565b60405180910390fd5b50565b600033905090565b816004600083815260200190815260200160002060006101000a81548173ffffffffffffffffffffffffffffffffffffffff021916908373ffffffffffffffffffffffffffffffffffffffff160217905550808273ffffffffffffffffffffffffffffffffffffffff1661140183610bb0565b73ffffffffffffffffffffffffffffffffffffffff167f8c5be1e5ebec7d5bd14f71427d1e84f3dd0314c0f7b2291e5b200ac8c7c3b92560405160405180910390a45050565b61144f611386565b73ffffffffffffffffffffffffffffffffffffffff1661146d610d41565b73ffffffffffffffffffffffffffffffffffffffff16146114c3576040517f08c379a00000000000000000000000000000000000000000000000000000000081526004016114ba90613412565b60405180910390fd5b565b6000806114d183610bb0565b90508073ffffffffffffffffffffffffffffffffffffffff168473ffffffffffffffffffffffffffffffffffffffff1614806115135750611512818561118f565b5b8061155157508373ffffffffffffffffffffffffffffffffffffffff16611539846108c8565b73ffffffffffffffffffffffffffffffffffffffff16145b91505092915050565b8273ffffffffffffffffffffffffffffffffffffffff1661157a82610bb0565b73ffffffffffffffffffffffffffffffffffffffff16146115d0576040517f08c379a00000000000000000000000000000000000000000000000000000000081526004016115c7906134a4565b60405180910390fd5b600073ffffffffffffffffffffffffffffffffffffffff168273ffffffffffffffffffffffffffffffffffffffff161415611640576040517f08c379a000000000000000000000000000000000000000000000000000000000815260040161163790613536565b60405180910390fd5b61164d8383836001611c57565b8273ffffffffffffffffffffffffffffffffffffffff1661166d82610bb0565b73ffffffffffffffffffffffffffffffffffffffff16146116c3576040517f08c379a00000000000000000000000000000000000000000000000000000000081526004016116ba906134a4565b60405180910390fd5b6004600082815260200190815260200160002060006101000a81549073ffffffffffffffffffffffffffffffffffffffff02191690556001600360008573ffffffffffffffffffffffffffffffffffffffff1673ffffffffffffffffffffffffffffffffffffffff168152602001908152602001600020600082825403925050819055506001600360008473ffffffffffffffffffffffffffffffffffffffff1673ffffffffffffffffffffffffffffffffffffffff16815260200190815260200160002060008282540192505081905550816002600083815260200190815260200160002060006101000a81548173ffffffffffffffffffffffffffffffffffffffff021916908373ffffffffffffffffffffffffffffffffffffffff160217905550808273ffffffffffffffffffffffffffffffffffffffff168473ffffffffffffffffffffffffffffffffffffffff167fddf252ad1be2c89b69c2b068fc378daa952ba7f163c4a11628f55a4df523b3ef60405160405180910390a461184f8383836001611d7d565b505050565b60006002600083815260200190815260200160002060009054906101000a900473ffffffffffffffffffffffffffffffffffffffff169050919050565b6000600660009054906101000a900473ffffffffffffffffffffffffffffffffffffffff16905081600660006101000a81548173ffffffffffffffffffffffffffffffffffffffff021916908373ffffffffffffffffffffffffffffffffffffffff1602179055508173ffffffffffffffffffffffffffffffffffffffff168173ffffffffffffffffffffffffffffffffffffffff167f8be0079c531659141344cd1fd0a4f28419497f9722a3daafe3b4186f6b6457e060405160405180910390a35050565b611971828260405180602001604052806000815250611d83565b5050565b8173ffffffffffffffffffffffffffffffffffffffff168373ffffffffffffffffffffffffffffffffffffffff1614156119e4576040517f08c379a00000000000000000000000000000000000000000000000000000000081526004016119db906135a2565b60405180910390fd5b80600560008573ffffffffffffffffffffffffffffffffffffffff1673ffffffffffffffffffffffffffffffffffffffff16815260200190815260200160002060008473ffffffffffffffffffffffffffffffffffffffff1673ffffffffffffffffffffffffffffffffffffffff16815260200190815260200160002060006101000a81548160ff0219169083151502179055508173ffffffffffffffffffffffffffffffffffffffff168373ffffffffffffffffffffffffffffffffffffffff167f17307eab39ab6107e8899845ad3d59bd9653f200f220920489ca2b5937696c3183604051611ad591906123c7565b60405180910390a3505050565b611aed84848461155a565b611af984848484611dde565b611b38576040517f08c379a0000000000000000000000000000000000000000000000000000000008152600401611b2f90613634565b60405180910390fd5b50505050565b606060006001611b4d84611f75565b01905060008167ffffffffffffffff811115611b6c57611b6b6128f0565b5b6040519080825280601f01601f191660200182016040528015611b9e5781602001600182028036833780820191505090505b509050600082602001820190505b600115611c0b578080600190039150507f3031323334353637383961626364656600000000000000000000000000000000600a86061a8153600a8581611bf557611bf4613654565b5b0494506000851415611c0657611c0b565b611bac565b819350505050919050565b60008073ffffffffffffffffffffffffffffffffffffffff16611c3883611854565b73ffffffffffffffffffffffffffffffffffffffff1614159050919050565b6001811115611d7757600073ffffffffffffffffffffffffffffffffffffffff168473ffffffffffffffffffffffffffffffffffffffff1614611ceb5780600360008673ffffffffffffffffffffffffffffffffffffffff1673ffffffffffffffffffffffffffffffffffffffff1681526020019081526020016000206000828254611ce39190613683565b925050819055505b600073ffffffffffffffffffffffffffffffffffffffff168373ffffffffffffffffffffffffffffffffffffffff1614611d765780600360008573ffffffffffffffffffffffffffffffffffffffff1673ffffffffffffffffffffffffffffffffffffffff1681526020019081526020016000206000828254611d6e9190613006565b925050819055505b5b50505050565b50505050565b611d8d83836120c8565b611d9a6000848484611dde565b611dd9576040517f08c379a0000000000000000000000000000000000000000000000000000000008152600401611dd090613634565b60405180910390fd5b505050565b6000611dff8473ffffffffffffffffffffffffffffffffffffffff166122e6565b15611f68578373ffffffffffffffffffffffffffffffffffffffff1663150b7a02611e28611386565b8786866040518563ffffffff1660e01b8152600401611e4a949392919061370c565b602060405180830381600087803b158015611e6457600080fd5b505af1925050508015611e9557506040513d601f19601f82011682018060405250810190611e92919061376d565b60015b611f18573d8060008114611ec5576040519150601f19603f3d011682016040523d82523d6000602084013e611eca565b606091505b50600081511415611f10576040517f08c379a0000000000000000000000000000000000000000000000000000000008152600401611f0790613634565b60405180910390fd5b805181602001fd5b63150b7a0260e01b7bffffffffffffffffffffffffffffffffffffffffffffffffffffffff1916817bffffffffffffffffffffffffffffffffffffffffffffffffffffffff191614915050611f6d565b600190505b949350505050565b600080600090507a184f03e93ff9f4daa797ed6e38ed64bf6a1f0100000000000000008310611fd3577a184f03e93ff9f4daa797ed6e38ed64bf6a1f0100000000000000008381611fc957611fc8613654565b5b0492506040810190505b6d04ee2d6d415b85acef81000000008310612010576d04ee2d6d415b85acef8100000000838161200657612005613654565b5b0492506020810190505b662386f26fc10000831061203f57662386f26fc10000838161203557612034613654565b5b0492506010810190505b6305f5e1008310612068576305f5e100838161205e5761205d613654565b5b0492506008810190505b612710831061208d57612710838161208357612082613654565b5b0492506004810190505b606483106120b057606483816120a6576120a5613654565b5b0492506002810190505b600a83106120bf576001810190505b80915050919050565b600073ffffffffffffffffffffffffffffffffffffffff168273ffffffffffffffffffffffffffffffffffffffff161415612138576040517f08c379a000000000000000000000000000000000000000000000000000000000815260040161212f906137e6565b60405180910390fd5b61214181611c16565b15612181576040517f08c379a000000000000000000000000000000000000000000000000000000000815260040161217890613852565b60405180910390fd5b61218f600083836001611c57565b61219881611c16565b156121d8576040517f08c379a00000000000000000000000000000000000000000000000000000000081526004016121cf90613852565b60405180910390fd5b6001600360008473ffffffffffffffffffffffffffffffffffffffff1673ffffffffffffffffffffffffffffffffffffffff16815260200190815260200160002060008282540192505081905550816002600083815260200190815260200160002060006101000a81548173ffffffffffffffffffffffffffffffffffffffff021916908373ffffffffffffffffffffffffffffffffffffffff160217905550808273ffffffffffffffffffffffffffffffffffffffff16600073ffffffffffffffffffffffffffffffffffffffff167fddf252ad1be2c89b69c2b068fc378daa952ba7f163c4a11628f55a4df523b3ef60405160405180910390a46122e2600083836001611d7d565b5050565b6000808273ffffffffffffffffffffffffffffffffffffffff163b119050919050565b82805461231590612b0d565b90600052602060002090601f016020900481019282612337576000855561237e565b82601f1061235057803560ff191683800117855561237e565b8280016001018555821561237e579182015b8281111561237d578235825591602001919060010190612362565b5b50905061238b919061238f565b5090565b5b808211156123a8576000816000905550600101612390565b5090565b60008115159050919050565b6123c1816123ac565b82525050565b60006020820190506123dc60008301846123b8565b92915050565b6000604051905090565b600080fd5b600080fd5b60007fffffffff0000000000000000000000000000000000000000000000000000000082169050919050565b61242b816123f6565b811461243657600080fd5b50565b60008135905061244881612422565b92915050565b600060208284031215612464576124636123ec565b5b600061247284828501612439565b91505092915050565b600081519050919050565b600082825260208201905092915050565b60005b838110156124b557808201518184015260208101905061249a565b838111156124c4576000848401525b50505050565b6000601f19601f8301169050919050565b60006124e68261247b565b6124f08185612486565b9350612500818560208601612497565b612509816124ca565b840191505092915050565b6000602082019050818103600083015261252e81846124db565b905092915050565b6000819050919050565b61254981612536565b811461255457600080fd5b50565b60008135905061256681612540565b92915050565b600060208284031215612582576125816123ec565b5b600061259084828501612557565b91505092915050565b600073ffffffffffffffffffffffffffffffffffffffff82169050919050565b60006125c482612599565b9050919050565b6125d4816125b9565b82525050565b60006020820190506125ef60008301846125cb565b92915050565b6125fe816125b9565b811461260957600080fd5b50565b60008135905061261b816125f5565b92915050565b60008060408385031215612638576126376123ec565b5b60006126468582860161260c565b925050602061265785828601612557565b9150509250929050565b61266a81612536565b82525050565b60006020820190506126856000830184612661565b92915050565b612694816123ac565b811461269f57600080fd5b50565b6000813590506126b18161268b565b92915050565b6000602082840312156126cd576126cc6123ec565b5b60006126db848285016126a2565b91505092915050565b6000806000606084860312156126fd576126fc6123ec565b5b600061270b8682870161260c565b935050602061271c8682870161260c565b925050604061272d86828701612557565b9150509250925092565b60006020828403121561274d5761274c6123ec565b5b600061275b8482850161260c565b91505092915050565b600061276f82612599565b9050919050565b61277f81612764565b82525050565b600060208201905061279a6000830184612776565b92915050565b6127a981612764565b81146127b457600080fd5b50565b6000813590506127c6816127a0565b92915050565b6000602082840312156127e2576127e16123ec565b5b60006127f0848285016127b7565b91505092915050565b600080fd5b600080fd5b600080fd5b60008083601f84011261281e5761281d6127f9565b5b8235905067ffffffffffffffff81111561283b5761283a6127fe565b5b60208301915083600182028301111561285757612856612803565b5b9250929050565b60008060208385031215612875576128746123ec565b5b600083013567ffffffffffffffff811115612893576128926123f1565b5b61289f85828601612808565b92509250509250929050565b600080604083850312156128c2576128c16123ec565b5b60006128d08582860161260c565b92505060206128e1858286016126a2565b9150509250929050565b600080fd5b7f4e487b7100000000000000000000000000000000000000000000000000000000600052604160045260246000fd5b612928826124ca565b810181811067ffffffffffffffff82111715612947576129466128f0565b5b80604052505050565b600061295a6123e2565b9050612966828261291f565b919050565b600067ffffffffffffffff821115612986576129856128f0565b5b61298f826124ca565b9050602081019050919050565b82818337600083830152505050565b60006129be6129b98461296b565b612950565b9050828152602081018484840111156129da576129d96128eb565b5b6129e584828561299c565b509392505050565b600082601f830112612a0257612a016127f9565b5b8135612a128482602086016129ab565b91505092915050565b60008060008060808587031215612a3557612a346123ec565b5b6000612a438782880161260c565b9450506020612a548782880161260c565b9350506040612a6587828801612557565b925050606085013567ffffffffffffffff811115612a8657612a856123f1565b5b612a92878288016129ed565b91505092959194509250565b60008060408385031215612ab557612ab46123ec565b5b6000612ac38582860161260c565b9250506020612ad48582860161260c565b9150509250929050565b7f4e487b7100000000000000000000000000000000000000000000000000000000600052602260045260246000fd5b60006002820490506001821680612b2557607f821691505b60208210811415612b3957612b38612ade565b5b50919050565b7f4552433732313a20617070726f76616c20746f2063757272656e74206f776e6560008201527f7200000000000000000000000000000000000000000000000000000000000000602082015250565b6000612b9b602183612486565b9150612ba682612b3f565b604082019050919050565b60006020820190508181036000830152612bca81612b8e565b9050919050565b7f4552433732313a20617070726f76652063616c6c6572206973206e6f7420746f60008201527f6b656e206f776e6572206f7220617070726f76656420666f7220616c6c000000602082015250565b6000612c2d603d83612486565b9150612c3882612bd1565b604082019050919050565b60006020820190508181036000830152612c5c81612c20565b9050919050565b7f4552433732313a2063616c6c6572206973206e6f7420746f6b656e206f776e6560008201527f72206f7220617070726f76656400000000000000000000000000000000000000602082015250565b6000612cbf602d83612486565b9150612cca82612c63565b604082019050919050565b60006020820190508181036000830152612cee81612cb2565b9050919050565b600081905092915050565b50565b6000612d10600083612cf5565b9150612d1b82612d00565b600082019050919050565b6000612d3182612d03565b9150819050919050565b7f7769746864726177206661696c65640000000000000000000000000000000000600082015250565b6000612d71600f83612486565b9150612d7c82612d3b565b602082019050919050565b60006020820190508181036000830152612da081612d64565b9050919050565b7f4552433732313a20696e76616c696420746f6b656e2049440000000000000000600082015250565b6000612ddd601883612486565b9150612de882612da7565b602082019050919050565b60006020820190508181036000830152612e0c81612dd0565b9050919050565b7f4552433732313a2061646472657373207a65726f206973206e6f74206120766160008201527f6c6964206f776e65720000000000000000000000000000000000000000000000602082015250565b6000612e6f602983612486565b9150612e7a82612e13565b604082019050919050565b60006020820190508181036000830152612e9e81612e62565b9050919050565b7f4d696e74206973206e6f74206c69766521000000000000000000000000000000600082015250565b6000612edb601183612486565b9150612ee682612ea5565b602082019050919050565b60006020820190508181036000830152612f0a81612ece565b9050919050565b7f4e487b7100000000000000000000000000000000000000000000000000000000600052601160045260246000fd5b6000612f4b82612536565b9150612f5683612536565b9250817fffffffffffffffffffffffffffffffffffffffffffffffffffffffffffffffff0483118215151615612f8f57612f8e612f11565b5b828202905092915050565b7f4e6f7420656e6f75676820455448210000000000000000000000000000000000600082015250565b6000612fd0600f83612486565b9150612fdb82612f9a565b602082019050919050565b60006020820190508181036000830152612fff81612fc3565b9050919050565b600061301182612536565b915061301c83612536565b9250827fffffffffffffffffffffffffffffffffffffffffffffffffffffffffffffffff0382111561305157613050612f11565b5b828201905092915050565b7f536f6c64206f7574210000000000000000000000000000000000000000000000600082015250565b6000613092600983612486565b915061309d8261305c565b602082019050919050565b600060208201905081810360008301526130c181613085565b9050919050565b7f596f75206861766520616c7265616479206d696e746564210000000000000000600082015250565b60006130fe601883612486565b9150613109826130c8565b602082019050919050565b6000602082019050818103600083015261312d816130f1565b9050919050565b7f457863656564206d6178206d696e740000000000000000000000000000000000600082015250565b600061316a600f83612486565b915061317582613134565b602082019050919050565b600060208201905081810360008301526131998161315d565b9050919050565b60006131ab82612536565b91507fffffffffffffffffffffffffffffffffffffffffffffffffffffffffffffffff8214156131de576131dd612f11565b5b600182019050919050565b600081905092915050565b60008190508160005260206000209050919050565b6000815461321681612b0d565b61322081866131e9565b9450600182166000811461323b576001811461324c5761327f565b60ff1983168652818601935061327f565b613255856131f4565b60005b8381101561327757815481890152600182019150602081019050613258565b838801955050505b50505092915050565b60006132938261247b565b61329d81856131e9565b93506132ad818560208601612497565b80840191505092915050565b7f2e6a736f6e000000000000000000000000000000000000000000000000000000600082015250565b60006132ef6005836131e9565b91506132fa826132b9565b600582019050919050565b60006133118285613209565b915061331d8284613288565b9150613328826132e2565b91508190509392505050565b7f4f776e61626c653a206e6577206f776e657220697320746865207a65726f206160008201527f6464726573730000000000000000000000000000000000000000000000000000602082015250565b6000613390602683612486565b915061339b82613334565b604082019050919050565b600060208201905081810360008301526133bf81613383565b9050919050565b7f4f776e61626c653a2063616c6c6572206973206e6f7420746865206f776e6572600082015250565b60006133fc602083612486565b9150613407826133c6565b602082019050919050565b6000602082019050818103600083015261342b816133ef565b9050919050565b7f4552433732313a207472616e736665722066726f6d20696e636f72726563742060008201527f6f776e6572000000000000000000000000000000000000000000000000000000602082015250565b600061348e602583612486565b915061349982613432565b604082019050919050565b600060208201905081810360008301526134bd81613481565b9050919050565b7f4552433732313a207472616e7366657220746f20746865207a65726f2061646460008201527f7265737300000000000000000000000000000000000000000000000000000000602082015250565b6000613520602483612486565b915061352b826134c4565b604082019050919050565b6000602082019050818103600083015261354f81613513565b9050919050565b7f4552433732313a20617070726f766520746f2063616c6c657200000000000000600082015250565b600061358c601983612486565b915061359782613556565b602082019050919050565b600060208201905081810360008301526135bb8161357f565b9050919050565b7f4552433732313a207472616e7366657220746f206e6f6e20455243373231526560008201527f63656976657220696d706c656d656e7465720000000000000000000000000000602082015250565b600061361e603283612486565b9150613629826135c2565b604082019050919050565b6000602082019050818103600083015261364d81613611565b9050919050565b7f4e487b7100000000000000000000000000000000000000000000000000000000600052601260045260246000fd5b600061368e82612536565b915061369983612536565b9250828210156136ac576136ab612f11565b5b828203905092915050565b600081519050919050565b600082825260208201905092915050565b60006136de826136b7565b6136e881856136c2565b93506136f8818560208601612497565b613701816124ca565b840191505092915050565b600060808201905061372160008301876125cb565b61372e60208301866125cb565b61373b6040830185612661565b818103606083015261374d81846136d3565b905095945050505050565b60008151905061376781612422565b92915050565b600060208284031215613783576137826123ec565b5b600061379184828501613758565b91505092915050565b7f4552433732313a206d696e7420746f20746865207a65726f2061646472657373600082015250565b60006137d0602083612486565b91506137db8261379a565b602082019050919050565b600060208201905081810360008301526137ff816137c3565b9050919050565b7f4552433732313a20746f6b656e20616c7265616479206d696e74656400000000600082015250565b600061383c601c83612486565b915061384782613806565b602082019050919050565b6000602082019050818103600083015261386b8161382f565b905091905056fea2646970667358221220c3923af7d52e5b1f3b2693f514ec9e70ebcd8c2b66e117efe32b623b3da2f2c964736f6c63430008090033",
  "linkReferences": {},
  "deployedLinkReferences": {}
}